{
  "_format": "hh-sol-artifact-1",
  "contractName": "TodoListDApp",
  "sourceName": "contracts/TodoListDApp.sol",
  "abi": [
    {
      "inputs": [],
      "stateMutability": "nonpayable",
      "type": "constructor"
    },
    {
      "anonymous": false,
      "inputs": [
        {
          "indexed": false,
          "internalType": "string",
          "name": "_name",
          "type": "string"
        }
      ],
      "name": "NameChange",
      "type": "event"
    },
    {
      "anonymous": false,
      "inputs": [
        {
          "indexed": false,
          "internalType": "address",
          "name": "account",
          "type": "address"
        },
        {
          "indexed": false,
          "internalType": "uint256",
          "name": "userId",
          "type": "uint256"
        },
        {
          "indexed": false,
          "internalType": "string",
          "name": "title",
          "type": "string"
        },
        {
          "indexed": false,
          "internalType": "string",
          "name": "description",
          "type": "string"
        },
        {
          "indexed": false,
          "internalType": "string",
          "name": "tag",
          "type": "string"
        }
      ],
      "name": "TodoEvent",
      "type": "event"
    },
    {
      "inputs": [
        {
          "internalType": "uint256",
          "name": "",
          "type": "uint256"
        }
      ],
      "name": "TodoList",
      "outputs": [
        {
          "internalType": "address",
          "name": "account",
          "type": "address"
        },
        {
          "internalType": "uint256",
          "name": "userId",
          "type": "uint256"
        },
        {
          "internalType": "string",
          "name": "title",
          "type": "string"
        },
        {
          "internalType": "string",
          "name": "description",
          "type": "string"
        },
        {
          "internalType": "string",
          "name": "tag",
          "type": "string"
        }
      ],
      "stateMutability": "view",
      "type": "function"
    },
    {
      "inputs": [
        {
          "internalType": "string",
          "name": "_title",
          "type": "string"
        },
        {
          "internalType": "string",
          "name": "_description",
          "type": "string"
        },
        {
          "internalType": "string",
          "name": "_tag",
          "type": "string"
        }
      ],
      "name": "createTodoList",
      "outputs": [],
      "stateMutability": "nonpayable",
      "type": "function"
    },
    {
      "inputs": [],
      "name": "getAllTodoList",
      "outputs": [
        {
          "components": [
            {
              "internalType": "address",
              "name": "account",
              "type": "address"
            },
            {
              "internalType": "uint256",
              "name": "userId",
              "type": "uint256"
            },
            {
              "internalType": "string",
              "name": "title",
              "type": "string"
            },
            {
              "internalType": "string",
              "name": "description",
              "type": "string"
            },
            {
              "internalType": "string",
              "name": "tag",
              "type": "string"
            }
          ],
          "internalType": "struct TodoListDApp.TodoListObj[]",
          "name": "",
          "type": "tuple[]"
        }
      ],
      "stateMutability": "view",
      "type": "function"
    },
    {
      "inputs": [],
      "name": "getUserName",
      "outputs": [
        {
          "internalType": "string",
          "name": "",
          "type": "string"
        }
      ],
      "stateMutability": "view",
      "type": "function"
    },
    {
      "inputs": [
        {
          "internalType": "string",
          "name": "username",
          "type": "string"
        }
      ],
      "name": "setUserDetails",
      "outputs": [],
      "stateMutability": "nonpayable",
      "type": "function"
    }
  ],
  "bytecode": "0x608060405260006001553480156200001657600080fd5b50336000806101000a81548173ffffffffffffffffffffffffffffffffffffffff021916908373ffffffffffffffffffffffffffffffffffffffff1602179055506040518060400160405280600981526020017f416e6f6e796d6f75730000000000000000000000000000000000000000000000815250600260003373ffffffffffffffffffffffffffffffffffffffff1673ffffffffffffffffffffffffffffffffffffffff1681526020019081526020016000206000019081620000dd91906200035e565b5062000445565b600081519050919050565b7f4e487b7100000000000000000000000000000000000000000000000000000000600052604160045260246000fd5b7f4e487b7100000000000000000000000000000000000000000000000000000000600052602260045260246000fd5b600060028204905060018216806200016657607f821691505b6020821081036200017c576200017b6200011e565b5b50919050565b60008190508160005260206000209050919050565b60006020601f8301049050919050565b600082821b905092915050565b600060088302620001e67fffffffffffffffffffffffffffffffffffffffffffffffffffffffffffffffff82620001a7565b620001f28683620001a7565b95508019841693508086168417925050509392505050565b6000819050919050565b6000819050919050565b60006200023f6200023962000233846200020a565b62000214565b6200020a565b9050919050565b6000819050919050565b6200025b836200021e565b620002736200026a8262000246565b848454620001b4565b825550505050565b600090565b6200028a6200027b565b6200029781848462000250565b505050565b5b81811015620002bf57620002b360008262000280565b6001810190506200029d565b5050565b601f8211156200030e57620002d88162000182565b620002e38462000197565b81016020851015620002f3578190505b6200030b620003028562000197565b8301826200029c565b50505b505050565b600082821c905092915050565b6000620003336000198460080262000313565b1980831691505092915050565b60006200034e838362000320565b9150826002028217905092915050565b6200036982620000e4565b67ffffffffffffffff811115620003855762000384620000ef565b5b6200039182546200014d565b6200039e828285620002c3565b600060209050601f831160018114620003d65760008415620003c1578287015190505b620003cd858262000340565b8655506200043d565b601f198416620003e68662000182565b60005b828110156200041057848901518255600182019150602085019450602081019050620003e9565b868310156200043057848901516200042c601f89168262000320565b8355505b6001600288020188555050505b505050505050565b61140880620004556000396000f3fe608060405234801561001057600080fd5b50600436106100575760003560e01c806312958f1c1461005c5780631c59c7101461007a5780634f8bfdb5146100ae578063b7f4487f146100ca578063d2b169f8146100e8575b600080fd5b610064610104565b60405161007191906109a7565b60405180910390f35b610094600480360381019061008f9190610a13565b6101d6565b6040516100a5959493929190610a90565b60405180910390f35b6100c860048036038101906100c39190610c2d565b6103c4565b005b6100d26105f9565b6040516100df9190610e82565b60405180910390f35b61010260048036038101906100fd9190610f04565b61086e565b005b6060600260003373ffffffffffffffffffffffffffffffffffffffff1673ffffffffffffffffffffffffffffffffffffffff168152602001908152602001600020600001805461015390610f80565b80601f016020809104026020016040519081016040528092919081815260200182805461017f90610f80565b80156101cc5780601f106101a1576101008083540402835291602001916101cc565b820191906000526020600020905b8154815290600101906020018083116101af57829003601f168201915b5050505050905090565b60036020528060005260406000206000915090508060000160009054906101000a900473ffffffffffffffffffffffffffffffffffffffff169080600101549080600201805461022590610f80565b80601f016020809104026020016040519081016040528092919081815260200182805461025190610f80565b801561029e5780601f106102735761010080835404028352916020019161029e565b820191906000526020600020905b81548152906001019060200180831161028157829003601f168201915b5050505050908060030180546102b390610f80565b80601f01602080910402602001604051908101604052809291908181526020018280546102df90610f80565b801561032c5780601f106103015761010080835404028352916020019161032c565b820191906000526020600020905b81548152906001019060200180831161030f57829003601f168201915b50505050509080600401805461034190610f80565b80601f016020809104026020016040519081016040528092919081815260200182805461036d90610f80565b80156103ba5780601f1061038f576101008083540402835291602001916103ba565b820191906000526020600020905b81548152906001019060200180831161039d57829003601f168201915b5050505050905085565b3360036000600154815260200190815260200160002060000160006101000a81548173ffffffffffffffffffffffffffffffffffffffff021916908373ffffffffffffffffffffffffffffffffffffffff1602179055506001546003600060015481526020019081526020016000206001018190555082600360006001548152602001908152602001600020600201908161045f919061115d565b50816003600060015481526020019081526020016000206003019081610485919061115d565b508060036000600154815260200190815260200160002060040190816104ab919061115d565b5060046040518060a001604052803373ffffffffffffffffffffffffffffffffffffffff168152602001600154815260200185815260200184815260200183815250908060018154018082558091505060019003906000526020600020906005020160009091909190915060008201518160000160006101000a81548173ffffffffffffffffffffffffffffffffffffffff021916908373ffffffffffffffffffffffffffffffffffffffff16021790555060208201518160010155604082015181600201908161057c919061115d565b506060820151816003019081610592919061115d565b5060808201518160040190816105a8919061115d565b5050506105b36108fd565b7f80af1eda6137367a669ce988765a9289cc78c50e96055dfe1f12104554dc975a336001548585856040516105ec959493929190610a90565b60405180910390a1505050565b60606004805480602002602001604051908101604052809291908181526020016000905b8282101561086557838290600052602060002090600502016040518060a00160405290816000820160009054906101000a900473ffffffffffffffffffffffffffffffffffffffff1673ffffffffffffffffffffffffffffffffffffffff1673ffffffffffffffffffffffffffffffffffffffff168152602001600182015481526020016002820180546106b090610f80565b80601f01602080910402602001604051908101604052809291908181526020018280546106dc90610f80565b80156107295780601f106106fe57610100808354040283529160200191610729565b820191906000526020600020905b81548152906001019060200180831161070c57829003601f168201915b5050505050815260200160038201805461074290610f80565b80601f016020809104026020016040519081016040528092919081815260200182805461076e90610f80565b80156107bb5780601f10610790576101008083540402835291602001916107bb565b820191906000526020600020905b81548152906001019060200180831161079e57829003601f168201915b505050505081526020016004820180546107d490610f80565b80601f016020809104026020016040519081016040528092919081815260200182805461080090610f80565b801561084d5780601f106108225761010080835404028352916020019161084d565b820191906000526020600020905b81548152906001019060200180831161083057829003601f168201915b5050505050815250508152602001906001019061061d565b50505050905090565b8181600260003373ffffffffffffffffffffffffffffffffffffffff1673ffffffffffffffffffffffffffffffffffffffff16815260200190815260200160002060000191826108bf92919061123a565b507fd3807fa54fb4a876f91813a2da7f5c40d1370d627f4837d7090b0118ac909f4a82826040516108f1929190611337565b60405180910390a15050565b600160008154809291906109109061138a565b9190505550565b600081519050919050565b600082825260208201905092915050565b60005b83811015610951578082015181840152602081019050610936565b60008484015250505050565b6000601f19601f8301169050919050565b600061097982610917565b6109838185610922565b9350610993818560208601610933565b61099c8161095d565b840191505092915050565b600060208201905081810360008301526109c1818461096e565b905092915050565b6000604051905090565b600080fd5b600080fd5b6000819050919050565b6109f0816109dd565b81146109fb57600080fd5b50565b600081359050610a0d816109e7565b92915050565b600060208284031215610a2957610a286109d3565b5b6000610a37848285016109fe565b91505092915050565b600073ffffffffffffffffffffffffffffffffffffffff82169050919050565b6000610a6b82610a40565b9050919050565b610a7b81610a60565b82525050565b610a8a816109dd565b82525050565b600060a082019050610aa56000830188610a72565b610ab26020830187610a81565b8181036040830152610ac4818661096e565b90508181036060830152610ad8818561096e565b90508181036080830152610aec818461096e565b90509695505050505050565b600080fd5b600080fd5b7f4e487b7100000000000000000000000000000000000000000000000000000000600052604160045260246000fd5b610b3a8261095d565b810181811067ffffffffffffffff82111715610b5957610b58610b02565b5b80604052505050565b6000610b6c6109c9565b9050610b788282610b31565b919050565b600067ffffffffffffffff821115610b9857610b97610b02565b5b610ba18261095d565b9050602081019050919050565b82818337600083830152505050565b6000610bd0610bcb84610b7d565b610b62565b905082815260208101848484011115610bec57610beb610afd565b5b610bf7848285610bae565b509392505050565b600082601f830112610c1457610c13610af8565b5b8135610c24848260208601610bbd565b91505092915050565b600080600060608486031215610c4657610c456109d3565b5b600084013567ffffffffffffffff811115610c6457610c636109d8565b5b610c7086828701610bff565b935050602084013567ffffffffffffffff811115610c9157610c906109d8565b5b610c9d86828701610bff565b925050604084013567ffffffffffffffff811115610cbe57610cbd6109d8565b5b610cca86828701610bff565b9150509250925092565b600081519050919050565b600082825260208201905092915050565b6000819050602082019050919050565b610d0981610a60565b82525050565b610d18816109dd565b82525050565b600082825260208201905092915050565b6000610d3a82610917565b610d448185610d1e565b9350610d54818560208601610933565b610d5d8161095d565b840191505092915050565b600060a083016000830151610d806000860182610d00565b506020830151610d936020860182610d0f565b5060408301518482036040860152610dab8282610d2f565b91505060608301518482036060860152610dc58282610d2f565b91505060808301518482036080860152610ddf8282610d2f565b9150508091505092915050565b6000610df88383610d68565b905092915050565b6000602082019050919050565b6000610e1882610cd4565b610e228185610cdf565b935083602082028501610e3485610cf0565b8060005b85811015610e705784840389528151610e518582610dec565b9450610e5c83610e00565b925060208a01995050600181019050610e38565b50829750879550505050505092915050565b60006020820190508181036000830152610e9c8184610e0d565b905092915050565b600080fd5b600080fd5b60008083601f840112610ec457610ec3610af8565b5b8235905067ffffffffffffffff811115610ee157610ee0610ea4565b5b602083019150836001820283011115610efd57610efc610ea9565b5b9250929050565b60008060208385031215610f1b57610f1a6109d3565b5b600083013567ffffffffffffffff811115610f3957610f386109d8565b5b610f4585828601610eae565b92509250509250929050565b7f4e487b7100000000000000000000000000000000000000000000000000000000600052602260045260246000fd5b60006002820490506001821680610f9857607f821691505b602082108103610fab57610faa610f51565b5b50919050565b60008190508160005260206000209050919050565b60006020601f8301049050919050565b600082821b905092915050565b6000600883026110137fffffffffffffffffffffffffffffffffffffffffffffffffffffffffffffffff82610fd6565b61101d8683610fd6565b95508019841693508086168417925050509392505050565b6000819050919050565b600061105a611055611050846109dd565b611035565b6109dd565b9050919050565b6000819050919050565b6110748361103f565b61108861108082611061565b848454610fe3565b825550505050565b600090565b61109d611090565b6110a881848461106b565b505050565b5b818110156110cc576110c1600082611095565b6001810190506110ae565b5050565b601f821115611111576110e281610fb1565b6110eb84610fc6565b810160208510156110fa578190505b61110e61110685610fc6565b8301826110ad565b50505b505050565b600082821c905092915050565b600061113460001984600802611116565b1980831691505092915050565b600061114d8383611123565b9150826002028217905092915050565b61116682610917565b67ffffffffffffffff81111561117f5761117e610b02565b5b6111898254610f80565b6111948282856110d0565b600060209050601f8311600181146111c757600084156111b5578287015190505b6111bf8582611141565b865550611227565b601f1984166111d586610fb1565b60005b828110156111fd578489015182556001820191506020850194506020810190506111d8565b8683101561121a5784890151611216601f891682611123565b8355505b6001600288020188555050505b505050505050565b600082905092915050565b611244838361122f565b67ffffffffffffffff81111561125d5761125c610b02565b5b6112678254610f80565b6112728282856110d0565b6000601f8311600181146112a1576000841561128f578287013590505b6112998582611141565b865550611301565b601f1984166112af86610fb1565b60005b828110156112d7578489013582556001820191506020850194506020810190506112b2565b868310156112f457848901356112f0601f891682611123565b8355505b6001600288020188555050505b50505050505050565b60006113168385610922565b9350611323838584610bae565b61132c8361095d565b840190509392505050565b6000602082019050818103600083015261135281848661130a565b90509392505050565b7f4e487b7100000000000000000000000000000000000000000000000000000000600052601160045260246000fd5b6000611395826109dd565b91507fffffffffffffffffffffffffffffffffffffffffffffffffffffffffffffffff82036113c7576113c661135b565b5b60018201905091905056fea26469706673582212208b77b355d5629186e39e9c5ddb7beb7c973ab09a0dbe2e63daebd812a0dc4b7d64736f6c63430008110033",
  "linkReferences": {},
  "deployedLinkReferences": {}
}