{
  "_format": "hh-sol-artifact-1",
  "contractName": "TodoListDApp",
  "sourceName": "contracts/TodoListDApp.sol",
  "abi": [
    {
      "inputs": [],
      "stateMutability": "nonpayable",
      "type": "constructor"
    },
    {
      "anonymous": false,
      "inputs": [
        {
          "indexed": false,
          "internalType": "address",
          "name": "account",
          "type": "address"
        },
        {
          "indexed": false,
          "internalType": "uint256",
          "name": "userId",
          "type": "uint256"
        },
        {
          "indexed": false,
          "internalType": "string",
          "name": "title",
          "type": "string"
        },
        {
          "indexed": false,
          "internalType": "string",
          "name": "description",
          "type": "string"
        },
        {
          "indexed": false,
          "internalType": "string",
          "name": "tag",
          "type": "string"
        }
      ],
      "name": "TodoEvent",
      "type": "event"
    },
    {
      "inputs": [
        {
          "internalType": "uint256",
          "name": "",
          "type": "uint256"
        }
      ],
      "name": "TodoList",
      "outputs": [
        {
          "internalType": "address",
          "name": "account",
          "type": "address"
        },
        {
          "internalType": "uint256",
          "name": "userId",
          "type": "uint256"
        },
        {
          "internalType": "string",
          "name": "title",
          "type": "string"
        },
        {
          "internalType": "string",
          "name": "description",
          "type": "string"
        },
        {
          "internalType": "string",
          "name": "tag",
          "type": "string"
        }
      ],
      "stateMutability": "view",
      "type": "function"
    },
    {
      "inputs": [
        {
          "internalType": "string",
          "name": "_title",
          "type": "string"
        },
        {
          "internalType": "string",
          "name": "_description",
          "type": "string"
        },
        {
          "internalType": "string",
          "name": "_tag",
          "type": "string"
        }
      ],
      "name": "createTodoList",
      "outputs": [],
      "stateMutability": "nonpayable",
      "type": "function"
    },
    {
      "inputs": [],
      "name": "getAllTodoList",
      "outputs": [
        {
          "components": [
            {
              "internalType": "address",
              "name": "account",
              "type": "address"
            },
            {
              "internalType": "uint256",
              "name": "userId",
              "type": "uint256"
            },
            {
              "internalType": "string",
              "name": "title",
              "type": "string"
            },
            {
              "internalType": "string",
              "name": "description",
              "type": "string"
            },
            {
              "internalType": "string",
              "name": "tag",
              "type": "string"
            }
          ],
          "internalType": "struct TodoListDApp.TodoListObj[]",
          "name": "",
          "type": "tuple[]"
        }
      ],
      "stateMutability": "view",
      "type": "function"
    }
  ],
  "bytecode": "0x6080604052600060015534801561001557600080fd5b50336000806101000a81548173ffffffffffffffffffffffffffffffffffffffff021916908373ffffffffffffffffffffffffffffffffffffffff1602179055506112d3806100656000396000f3fe608060405234801561001057600080fd5b50600436106100415760003560e01c80631c59c710146100465780634f8bfdb51461007a578063b7f4487f14610096575b600080fd5b610060600480360381019061005b9190610a27565b6100b4565b604051610071959493929190610b34565b60405180910390f35b610094600480360381019061008f9190610cd1565b6102a2565b005b61009e61074e565b6040516100ab9190610f26565b60405180910390f35b60026020528060005260406000206000915090508060000160009054906101000a900473ffffffffffffffffffffffffffffffffffffffff169080600101549080600201805461010390610f77565b80601f016020809104026020016040519081016040528092919081815260200182805461012f90610f77565b801561017c5780601f106101515761010080835404028352916020019161017c565b820191906000526020600020905b81548152906001019060200180831161015f57829003601f168201915b50505050509080600301805461019190610f77565b80601f01602080910402602001604051908101604052809291908181526020018280546101bd90610f77565b801561020a5780601f106101df5761010080835404028352916020019161020a565b820191906000526020600020905b8154815290600101906020018083116101ed57829003601f168201915b50505050509080600401805461021f90610f77565b80601f016020809104026020016040519081016040528092919081815260200182805461024b90610f77565b80156102985780601f1061026d57610100808354040283529160200191610298565b820191906000526020600020905b81548152906001019060200180831161027b57829003601f168201915b5050505050905085565b3360026000600154815260200190815260200160002060000160006101000a81548173ffffffffffffffffffffffffffffffffffffffff021916908373ffffffffffffffffffffffffffffffffffffffff1602179055506001546002600060015481526020019081526020016000206001018190555082600260006001548152602001908152602001600020600201908161033d9190611154565b508160026000600154815260200190815260200160002060030190816103639190611154565b508060026000600154815260200190815260200160002060040190816103899190611154565b5060036040518060a001604052803360026000600154815260200190815260200160002060000160006101000a81548173ffffffffffffffffffffffffffffffffffffffff021916908373ffffffffffffffffffffffffffffffffffffffff160217905573ffffffffffffffffffffffffffffffffffffffff16815260200160015460026000600154815260200190815260200160002060010181905581526020018560026000600154815260200190815260200160002060020190816104509190611154565b805461045b90610f77565b80601f016020809104026020016040519081016040528092919081815260200182805461048790610f77565b80156104d45780601f106104a9576101008083540402835291602001916104d4565b820191906000526020600020905b8154815290600101906020018083116104b757829003601f168201915b505050505081526020018460026000600154815260200190815260200160002060030190816105039190611154565b805461050e90610f77565b80601f016020809104026020016040519081016040528092919081815260200182805461053a90610f77565b80156105875780601f1061055c57610100808354040283529160200191610587565b820191906000526020600020905b81548152906001019060200180831161056a57829003601f168201915b505050505081526020018360026000600154815260200190815260200160002060040190816105b69190611154565b80546105c190610f77565b80601f01602080910402602001604051908101604052809291908181526020018280546105ed90610f77565b801561063a5780601f1061060f5761010080835404028352916020019161063a565b820191906000526020600020905b81548152906001019060200180831161061d57829003601f168201915b5050505050815250908060018154018082558091505060019003906000526020600020906005020160009091909190915060008201518160000160006101000a81548173ffffffffffffffffffffffffffffffffffffffff021916908373ffffffffffffffffffffffffffffffffffffffff1602179055506020820151816001015560408201518160020190816106d19190611154565b5060608201518160030190816106e79190611154565b5060808201518160040190816106fd9190611154565b5050506107086109c3565b7f80af1eda6137367a669ce988765a9289cc78c50e96055dfe1f12104554dc975a33600154858585604051610741959493929190610b34565b60405180910390a1505050565b60606003805480602002602001604051908101604052809291908181526020016000905b828210156109ba57838290600052602060002090600502016040518060a00160405290816000820160009054906101000a900473ffffffffffffffffffffffffffffffffffffffff1673ffffffffffffffffffffffffffffffffffffffff1673ffffffffffffffffffffffffffffffffffffffff1681526020016001820154815260200160028201805461080590610f77565b80601f016020809104026020016040519081016040528092919081815260200182805461083190610f77565b801561087e5780601f106108535761010080835404028352916020019161087e565b820191906000526020600020905b81548152906001019060200180831161086157829003601f168201915b5050505050815260200160038201805461089790610f77565b80601f01602080910402602001604051908101604052809291908181526020018280546108c390610f77565b80156109105780601f106108e557610100808354040283529160200191610910565b820191906000526020600020905b8154815290600101906020018083116108f357829003601f168201915b5050505050815260200160048201805461092990610f77565b80601f016020809104026020016040519081016040528092919081815260200182805461095590610f77565b80156109a25780601f10610977576101008083540402835291602001916109a2565b820191906000526020600020905b81548152906001019060200180831161098557829003601f168201915b50505050508152505081526020019060010190610772565b50505050905090565b600160008154809291906109d690611255565b9190505550565b6000604051905090565b600080fd5b600080fd5b6000819050919050565b610a04816109f1565b8114610a0f57600080fd5b50565b600081359050610a21816109fb565b92915050565b600060208284031215610a3d57610a3c6109e7565b5b6000610a4b84828501610a12565b91505092915050565b600073ffffffffffffffffffffffffffffffffffffffff82169050919050565b6000610a7f82610a54565b9050919050565b610a8f81610a74565b82525050565b610a9e816109f1565b82525050565b600081519050919050565b600082825260208201905092915050565b60005b83811015610ade578082015181840152602081019050610ac3565b60008484015250505050565b6000601f19601f8301169050919050565b6000610b0682610aa4565b610b108185610aaf565b9350610b20818560208601610ac0565b610b2981610aea565b840191505092915050565b600060a082019050610b496000830188610a86565b610b566020830187610a95565b8181036040830152610b688186610afb565b90508181036060830152610b7c8185610afb565b90508181036080830152610b908184610afb565b90509695505050505050565b600080fd5b600080fd5b7f4e487b7100000000000000000000000000000000000000000000000000000000600052604160045260246000fd5b610bde82610aea565b810181811067ffffffffffffffff82111715610bfd57610bfc610ba6565b5b80604052505050565b6000610c106109dd565b9050610c1c8282610bd5565b919050565b600067ffffffffffffffff821115610c3c57610c3b610ba6565b5b610c4582610aea565b9050602081019050919050565b82818337600083830152505050565b6000610c74610c6f84610c21565b610c06565b905082815260208101848484011115610c9057610c8f610ba1565b5b610c9b848285610c52565b509392505050565b600082601f830112610cb857610cb7610b9c565b5b8135610cc8848260208601610c61565b91505092915050565b600080600060608486031215610cea57610ce96109e7565b5b600084013567ffffffffffffffff811115610d0857610d076109ec565b5b610d1486828701610ca3565b935050602084013567ffffffffffffffff811115610d3557610d346109ec565b5b610d4186828701610ca3565b925050604084013567ffffffffffffffff811115610d6257610d616109ec565b5b610d6e86828701610ca3565b9150509250925092565b600081519050919050565b600082825260208201905092915050565b6000819050602082019050919050565b610dad81610a74565b82525050565b610dbc816109f1565b82525050565b600082825260208201905092915050565b6000610dde82610aa4565b610de88185610dc2565b9350610df8818560208601610ac0565b610e0181610aea565b840191505092915050565b600060a083016000830151610e246000860182610da4565b506020830151610e376020860182610db3565b5060408301518482036040860152610e4f8282610dd3565b91505060608301518482036060860152610e698282610dd3565b91505060808301518482036080860152610e838282610dd3565b9150508091505092915050565b6000610e9c8383610e0c565b905092915050565b6000602082019050919050565b6000610ebc82610d78565b610ec68185610d83565b935083602082028501610ed885610d94565b8060005b85811015610f145784840389528151610ef58582610e90565b9450610f0083610ea4565b925060208a01995050600181019050610edc565b50829750879550505050505092915050565b60006020820190508181036000830152610f408184610eb1565b905092915050565b7f4e487b7100000000000000000000000000000000000000000000000000000000600052602260045260246000fd5b60006002820490506001821680610f8f57607f821691505b602082108103610fa257610fa1610f48565b5b50919050565b60008190508160005260206000209050919050565b60006020601f8301049050919050565b600082821b905092915050565b60006008830261100a7fffffffffffffffffffffffffffffffffffffffffffffffffffffffffffffffff82610fcd565b6110148683610fcd565b95508019841693508086168417925050509392505050565b6000819050919050565b600061105161104c611047846109f1565b61102c565b6109f1565b9050919050565b6000819050919050565b61106b83611036565b61107f61107782611058565b848454610fda565b825550505050565b600090565b611094611087565b61109f818484611062565b505050565b5b818110156110c3576110b860008261108c565b6001810190506110a5565b5050565b601f821115611108576110d981610fa8565b6110e284610fbd565b810160208510156110f1578190505b6111056110fd85610fbd565b8301826110a4565b50505b505050565b600082821c905092915050565b600061112b6000198460080261110d565b1980831691505092915050565b6000611144838361111a565b9150826002028217905092915050565b61115d82610aa4565b67ffffffffffffffff81111561117657611175610ba6565b5b6111808254610f77565b61118b8282856110c7565b600060209050601f8311600181146111be57600084156111ac578287015190505b6111b68582611138565b86555061121e565b601f1984166111cc86610fa8565b60005b828110156111f4578489015182556001820191506020850194506020810190506111cf565b86831015611211578489015161120d601f89168261111a565b8355505b6001600288020188555050505b505050505050565b7f4e487b7100000000000000000000000000000000000000000000000000000000600052601160045260246000fd5b6000611260826109f1565b91507fffffffffffffffffffffffffffffffffffffffffffffffffffffffffffffffff820361129257611291611226565b5b60018201905091905056fea2646970667358221220c2a80a3d690ce561289914c3b9063cb59482dc13a0609c807acdf6b5d78c37c864736f6c63430008110033",
  "linkReferences": {},
  "deployedLinkReferences": {}
}